:020000040800F2
:10000000F8EF002045010008793200084D2800086B
:100010007532000865190008517F000800000000D3
:10002000000000000000000000000000553E000835
:10003000151F000800000000F932000849400008C0
:100040005F0100085F0100085F010008AD3800088B
:100050005F0100085F010008A52100085F0100089A
:100060005F0100085F0100085F0100085F010008F0
:100070005F0100085F0100085F0100085F010008E0
:100080005F0100085F0100085F0100085F010008D0
:100090005F0100085F0100085F0100085F010008C0
:1000A0005F0100085F0100085F0100085F010008B0
:1000B0005F0100085F0100085F0100085F010008A0
:1000C0005F0100085F0100085F0100085F01000890
:1000D0005F010008A97B00085F0100085D7C000843
:1000E0005F0100085F0100085F0100085F01000870
:1000F0005F0100085F0100085F0100085F01000860
:100100005F0100085F0100085F0100085F0100084F
:100110005F0100085F0100085F0100085F0100083F
:100120005F0100085F0100085F0100085F0100082F
:10013000DFF80CD000F0DEFD00480047695F0108E1
:10014000F8EF00200648804706480047FEE7FEE734
:10015000FEE7FEE7FEE7FEE7FEE7FEE7FEE7FEE777
:100160008D40000831010008A0F14101192900D893
:100170002030704710B540EA01040346A40703D0BD
:1001800009E010C9121F10C3042AFAD203E011F8C3
:10019000014B03F8014B521EF9D210BDD2B201E05F
:1001A00000F8012B491EFBD270470022F6E710B57C
:1001B00013460A4604461946FFF7F0FF204610BDD5
:1001C00030B505462A460B4612F8010B13F8014BD1
:1001D00008B1A042F8D01CB1002802D06D1CF1E794
:1001E000284630BD421C10F8011B0029FBD1801AA3
:1001F000704710B5002200E0521C835C8C5CA34267
:1002000001D1002BF8D1D8B2E1B2401A10BD03469B
:1002100011F8012B00F8012B002AF9D1184670477C
:1002200030B505460020034600E05B1C934205D232
:10023000EC5CC85C201A01D1002CF6D130BD70B541
:10024000064608F035FB046805460A2200213046C0
:1002500000F034FC2C6070BD70B5064608F028FB39
:10026000046805460A220021304600F027FC2C6075
:1002700070BD2DE9FE4F804681EA0300C00F0C4699
:10028000009021F0004123F00045B8EB0200A941A5
:1002900005D24046214690461C460B46024623F0B6
:1002A0000040104347D0270DC7F30A00C3F30A519B
:1002B0000290401A019040286BDAC3F3130040F417
:1002C000801B0098924620B10023D2EB030A63EB17
:1002D0000B0B01985946C0F14002504600F09FF9BF
:1002E00006460D4650465946019A00F0B7F910EB04
:1002F00008006141002487EA115284EAE7731A4337
:1003000040D0009A62B3019A012A4FEA075215DCE5
:10031000001B61EB02014FF0004202EA0752CDE9F7
:100320000042001C41F5801132462B4600F00DFCC6
:1003300003B0BDE8F08F40462146F9E7001B61EBB2
:100340000201001C41F5801300185B412018A2F542
:10035000001747EB030140EAD570B6196D4111E073
:100360006D084FEA360645EAC0754FEA0752001B92
:1003700061EB0201001C41F5801149084FEA300091
:100380000019514132462B4603B0BDE8F04F00F052
:10039000CDBB0098012240000023D0EB020263EBAA
:1003A000E073009821464FEAE074B8EB000061EB7F
:1003B0000401E9E783F000435BE781F0004158E77F
:1003C0002DE9FE4F81EA030404F0004421F00041CE
:1003D00000944FF0000B23F0004350EA01045ED07C
:1003E00052EA03045BD0C3F30A54C1F30A552C4408
:1003F000A4F2F3340194A0FB0254C1F3130141F4BD
:100400008011C3F3130343F4801301FB024400FB88
:10041000034E840A970A44EA815447EA8357A4FBAF
:10042000076802958D0A05FB07854FEA932C04FBAC
:100430000C542705029D4FEA065847EA1637B5EBDC
:1004400008056EEB070C870E920E47EA811742EA09
:100450008312A7FB0201B6EB0B0164EB00042B0D2A
:1004600043EA0C335E1844EB1C50DA465146E7FB76
:100470000201C5F313044FEA0B3343EA14534FEA66
:100480000432019C43EA0603A4F10C040294009C8C
:10049000CDE900B400F059FB03B0BDE8F08F0020B7
:1004A0000146F9E70EB540F2334102910021CDE952
:1004B00000110A460B4600F048FB03B000BD70B5C2
:1004C000C1F30A5201F000450024C1F3130140F2C8
:1004D000FF3341F480119A4201DA002070BD40F2EE
:1004E00033439A42A2F2334203DC524200F0A6F8B0
:1004F00000E090402C43F1D0404270BDC1F30A525D
:1005000010B5C1F3130140F2FF3341F480119A4258
:1005100001DA002010BD40F233439A42A2F2334286
:1005200003DC524200F08AF810BD904010BD00007C
:1005300030B5041E71F1000404DB4FF0004440426A
:1005400064EB0101141E73F1000405DB1C464FF03F
:100550000043524263EB04038B4208BF824230BD2A
:1005600030B5041E71F1000404DB4FF0004440423A
:1005700064EB0101141E73F1000405DB1C464FF00F
:100580000043524263EB0403994208BF904230BDDE
:1005900030B50B46014600202022012409E021FA53
:1005A00002F59D4205D303FA02F5491B04FA02F550
:1005B0002844151EA2F10102F1DC30BD2DE9F05FE7
:1005C0000546002092469B468846064681464024C2
:1005D0001BE0284641464746224600F02FF8534686
:1005E0005A46C01A914110D311461846224600F0CF
:1005F00016F82D1A67EB01084F462246012000210C
:1006000000F00DF817EB00094E41201EA4F1010483
:10061000DFDC484631462A464346BDE8F09F202AA3
:1006200004DB203A00FA02F1002070479140C2F149
:10063000200320FA03F3194390407047202A04DB7B
:10064000203A21FA02F00021704721FA02F3D0404B
:10065000C2F120029140084319467047202A06DB68
:10066000CB17203A41FA02F043EAE07306E041FA80
:1006700002F3D040C2F1200291400843194670476E
:100680002DE9FF4F087883B09946FF2805D0491C13
:100690002D2804D00024002008E000200BE00124D5
:1006A000F9E700EB800003EB4000491C0B78FF2BBF
:1006B000F7D104B1404200230293147819461D4635
:1006C0002D2C01D02B2C04D1521C2D2C13D0002406
:1006D0000294AA461478FF2C0FD00A25A3FB0578B4
:1006E00001FB05814FF0000C03FB0C11521CE319B8
:1006F0004AEB0101EEE70124EAE7814453EA0100F5
:1007000002D019F5C87F06DA03980021C0E900116C
:1007100007B0BDE8F08F0025AE4E2F46DFF8B88257
:10072000184600F063FBCDE90001B9F1000002DAE0
:10073000C9F1000400E004460023A74A1AEB030BAA
:1007400042EB045A12E0E00707D02A463346384607
:100750004146FFF735FE074688462A46334610468F
:100760001946FFF72DFE05460E466410002CEAD10F
:10077000DDE90001B9F1000F5A46534606DA00F0F0
:1007800032FA3A46434600F02EFA05E0FFF718FE2B
:100790003A464346FFF714FE029A0AB181F000413F
:1007A000039AC2E90001B3E72DE9FF4F1F468DB060
:1007B000D7E901464FF0FF382E2045464FF000099B
:1007C0000B90B9696D1C0E988847396A8246884734
:1007D0000028F6D1BAF1FF3F0AD024F4D064002EED
:1007E00011DDBAF12B0F08D0BAF12D0F0BD102E0B9
:1007F000404611B08DE744F48064B9696D1C0E98D1
:1008000088478246761E6946600501D52D2000E0A6
:100810002B208DF8000001F1010B0DF1200809E0FB
:10082000B9696D1C0E98884782460F9844F400748D
:10083000761E0560002E02DDBAF1300FF0D00B9964
:100840008A453ED144F0800406E00F99681CA9F166
:10085000010944F400740860B9696D1C761E0E9895
:10086000884782463028F0D02BE00B998A4505D185
:10087000200603D444F08004761E18E0504608F0A9
:1008800043F908B30DF11301761E44F400748B454F
:1008900008D2AAF130000BF8010B200607D5A9F108
:1008A000010003E0200602D409F101008146A00501
:1008B00002D50F99681C0860B9696D1C0E988847AD
:1008C0008246002ED1DC53E0002E51DDBAF1650FD7
:1008D00002D0BAF1450F4BD1A00549D5B9696D1CBD
:1008E00024F44074761E0E9888478246002E0CDD54
:1008F0002B2804D0BAF12D0F07D144F48074B969C4
:100900006D1C0E9888478246761EE00501D52D2184
:1009100000E02B2108F8011BCDF82C8021E00DF11F
:100920002901761E44F4007488450CD2AAF13000E7
:1009300010F0FF0088F8000002D10B99884509D912
:1009400008F1010806E0E00501D5244801E042F283
:100950000F708146B9696D1C0E98884782460F98C2
:100960000560002E04DD504608F0CEF80028D6D1F0
:10097000F9690E988847FF208BF8000088F800007E
:100980000020069007904B466A4608A906A8FFF784
:1009900077FEA00502D46FF001002AE714F0240FBF
:1009A0000AD0E00714D1DDE906123868031D3B6068
:1009B0000068C0E900120BE0DDE9060100F022FA50
:1009C0000146E00704D13868021D3A600068016002
:1009D00028460EE7000014400000F03FF1D8FFFF6A
:1009E000426842B1016811F8013B23B1521EC0E9CF
:1009F0000012184670470121C160881E7047426886
:100A00005AB1C368016843B983688B4205D0491E57
:100A1000521CC0E90012002070474FF0FF307047B1
:100A20000FB4002300B589B00CA900910B996FF0A9
:100A30000042CB601E4B06931E4B07930423CDE967
:100A400001321D4A089202466B460020FFF7ACFEB9
:100A500009B05DF814FB70B586B006464FF0FF3064
:100A60000091CDE90101002015460C460490324664
:100A7000694604A8FFF7D4FF02460498211825B15F
:100A800008B1084600E020462860049800280DD0F0
:100A9000002A02DD0098884208D0081B0094CDE9A6
:100AA00001043246694604A8FFF7BAFF06B070BDDC
:100AB000E1090008FF090008210D00082DE9F047B1
:100AC00091460F4680460446002614F8015B2DB17E
:100AD00000F022F90068405DC007F6D12B2D02D04E
:100AE0002D2D18D0641E4A463946204600F02FF9B5
:100AF00027B13968A14201D1C7F8008071054FF0D4
:100B000002040BD54042002803DD07F0D1FE04604B
:100B1000A007BDE8F08746F48066E4E70028F8DA2D
:100B200007F0C6FE04606FF00040F2E710B5141E37
:100B300073F1000408DA401C41F1000192185B4196
:100B40001A4301D120F0010010BD2DE9F04D92466D
:100B50009B4611B1B1FA81F202E0B0FA80F2203284
:100B60009046FFF75CFD04460F4640EA0A0041EA62
:100B70000B0153465A46084313D0114653EA01006D
:100B800019D0C8F140025046FFF758FD05460E4601
:100B9000504659464246FFF742FD084305D0012022
:100BA00004E020463946BDE8F08D0020054346EAC2
:100BB000E0762C4337430A986305E40AA0EB08006B
:100BC0000022FD0A44EA47540A3002D500200146BB
:100BD000E9E7010510196941DDE908450019694196
:100BE000BDE8F04DA2E72DE9F04D81EA030404F0E1
:100BF000004B21F0004514464FF0000A23F000415D
:100C000050EA050220D054EA01021DD0C5F30A576C
:100C10000246C5F31303C1F31300C1F30A5640F4AF
:100C2000801543F48013A7EB0608101BD64608F284
:100C3000FD3873EB050002D308F1010801E09218BA
:100C40005B41B8F1000F03DA00200146BDE8F08DEA
:100C500000204FF48011064684460EE0171B73EB0C
:100C6000050705D3121B63EB050306434CEA010C91
:100C700049084FEA300092185B4150EA0107EDD174
:100C800052EA030012D082EA040083EA0501084315
:100C900005D0101BAB4106D20122002306E0002242
:100CA0004FF0004302E06FF0010253101AEB060010
:100CB0004CEB085110EB0A0041EB0B01BDE8F04D85
:100CC000FFF734BFC1F30A52C1F3130140F2FF33FF
:100CD00041F480119A4202DA00200146704740F246
:100CE00033439A42A2F2334202DC5242FFF7A6BCDF
:100CF000FFF795BC064C074D06E0E06840F00103A5
:100D000094E8070098471034AC42F6D3FFF714FA82
:100D1000DC8F0708FC8F070800487047C48C070861
:100D200010B50446FFF7F8FF0068005D00F0010011
:100D300010BD3A2800D2303820F02002412A01D3D9
:100D4000A2F13700884201D34FF0FF3070472DE900
:100D5000F05F82460078002715468B460AF10104B1
:100D6000B946302801D09DB113E014F8010B0127DA
:100D7000782803D0582801D045B10AE00DB1102DD4
:100D800007D10027102514F8010B02E0082500E028
:100D90000A250026B0460EE005FB080005FB06F11B
:100DA000012701EB10461FFA80F8B6F5803F00D30B
:100DB000B94614F8010B2946FFF7BBFF0028EBDA10
:100DC000BBF1000F05D00FB1641E00E05446CBF814
:100DD0000040B9F1000F06D007F06AFD0221016062
:100DE000C81EBDE8F09F48EA0640FAE70EB540F29B
:100DF000334202920022CDE900221346FFF7A5FEFE
:100E000003B000BD01F0004330B421F0004150EACE
:100E1000010206D00A0DA2F56072C1F31301002A87
:100E200002DC30BC00207047440F44EAC104C1001A
:100E3000E01830BC00EBC250AFF300800029A8BF1F
:100E40007047401C490008BF20F00100704710B4F3
:100E5000B0FA80FC00FA0CF050EA010404BF10BCA8
:100E6000704749B1CCF1200421FA04F411FA0CF1D5
:100E700018BF012121430843A3EB0C01CB1D4FEA0E
:100E800000614FEA102042BF002010BC704700EB09
:100E9000C35010440029A4BF10BC7047401C490037
:100EA00008BF20F0010010BC704770B58C1810F816
:100EB000015B15F0070301D110F8013B2A1106D19F
:100EC00010F8012B03E010F8016B01F8016B5B1EB9
:100ED000F9D12B0705D40023521E0DD401F8013B94
:100EE000FAE710F8013BCB1A921C03E013F8015B00
:100EF00001F8015B521EF9D5A142D8D3002070BD84
:100F000000B58BB00121084602F00AFB114800F041
:100F10003DFF1148009011480190002002900220EE
:100F200003900020049080200590400006908000EF
:100F30000790202008900002099000200A9069463E
:100F4000044800F0C9FF0121024800F013FF0BB074
:100F500000BD0000080002404C2401407C0000203D
:100F600021B1826842F00102826003E0826822F0CF
:100F700001028260704721B1826842F4807282600F
:100F800003E0826822F4807282607047014600208C
:100F90008A6802F004020AB1012000E000207047D4
:100FA000014600208A6802F008020AB1012000E030
:100FB0000020704730B502460020002350680F4CD7
:100FC00020400D790C6844EA052420435060906865
:100FD0000B4C2040D1E902542C434D7944EA45049E
:100FE00020439060D06A20F470000C7C641EE4B250
:100FF000234340EA0350D06230BD0000FFFEF0FF03
:10100000FDF7F1FFF0B504460D4600200021092D43
:1010100011DDE068A5F10A0606EB4607072606FA89
:1010200007F18843A5F10A0606EB460603FA06F126
:101030000843E0600CE0206905EB4507072606FA47
:1010400007F1884305EB450603FA06F108432061E2
:10105000072A0FDA606B561E06EB86071F2606FA74
:1010600007F18843561E06EB860605FA06F108438B
:10107000606322E00D2A0FDA206BD61F06EB86078D
:101080001F2606FA07F18843D61F06EB860605FAE7
:1010900006F10843206310E0E06AA2F10D0606EBBA
:1010A00086071F2606FA07F18843A2F10D0606EB14
:1010B000860605FA06F10843E062F0BD816841F05A
:1010C000080181607047816841F0040181607047C8
:1010D0002DE9F14F86B0D2A10698FFF78AF808B93A
:1010E00000241AE0D1A10698FFF783F808B901247B
:1010F00013E0D0A10698FFF77CF808B902240CE0B1
:10110000CFA10698FFF775F808B9032405E0CFA131
:101110000698FFF76EF800B904246921CE48FFF75E
:1011200044F8CE4808F0F3F98146B9F1000F06D132
:10113000CBA007F099FB002007B0BDE8F08FD0A14D
:10114000484608F0CDF98246BAF1000F04D148466E
:1011500008F08EF90020EFE70021504608F0B4F9BE
:101160008346BBF1000F04D1484608F081F9002006
:10117000E2E7C5A1584608F0B3F90590059820B9F3
:10118000484608F075F90020D6E7C2A1059808F096
:10119000A7F98046B8F1000F04D1484608F068F975
:1011A0000020C9E7BDA0D8F8101007F05DFB0020B3
:1011B000009013E0C4EB0412C2EBC202BA4B13441A
:1011C000009AC2EBC20202EB82029818D8F8101003
:1011D000FFF71DF80098401CC0B20090009803284B
:1011E000E8DBB2A1584608F07BF90490049820B9D6
:1011F000484608F03DF900209EE70021049808F0D9
:1012000063F90390039820B9484608F031F90020AB
:1012100092E70121049808F057F90290029820B94A
:10122000484608F025F9002086E70221049808F0D6
:101230004BF90190019820B9484608F019F90020AF
:101240007AE79CA1039808F04BF9054625B9484672
:1012500008F00EF900206FE797A0296907F004FB5A
:10126000C4EB0412C2EBC2028F4B1A4402F11A0003
:101270002969FEF7CCFF95A1039808F031F90646DD
:1012800026B9484608F0F4F8002055E791A03169E6
:1012900007F0EAFAC4EB0412C2EBC202824B1A4412
:1012A00002F11D003169FEF7B2FF8FA1039808F02B
:1012B00017F9074627B9484608F0DAF800203BE757
:1012C0008CA0396907F0D0FAC4EB0412C2EBC20259
:1012D000754B1A4402F114003969FEF798FF75A1A5
:1012E000029808F0FDF8054625B9484608F0C0F810
:1012F000002021E785A0296907F0B6FAC4EB0412A3
:10130000C2EBC202684B1A4402F13D002969FEF7A4
:101310007EFF6EA1029808F0E3F8064626B948461B
:1013200008F0A6F8002007E77DA0316907F09CFAD5
:10133000C4EB0412C2EBC2025B4B1A4402F1400040
:101340003169FEF764FF68A1029808F0C9F8074602
:1013500027B9484608F08CF80020EDE675A03969F9
:1013600007F082FAC4EB0412C2EBC2024E4B1A44DD
:1013700002F137003969FEF74AFF4EA1019808F0E3
:10138000AFF8054625B9484608F072F80020D3E6C4
:101390006EA0296907F068FAC4EB0412C2EBC2021E
:1013A000414B1A4402F160002969FEF730FF47A162
:1013B000019808F095F8064626B9484608F058F80E
:1013C0000020B9E666A0316907F04EFAC4EB0412BA
:1013D000C2EBC202344B1A4402F163003169FEF7DA
:1013E00016FF41A1019808F07BF8074627B9484647
:1013F00008F03EF800209FE65EA0396907F034FA55
:10140000C4EB0412C2EBC202274B1A4402F15A0089
:101410003969FEF7FCFE484608F02AF801208BE601
:101420007A68656E677A686F750000006265696A40
:10143000696E67007368616E67686169000000002B
:101440006775616E677A686F750000007368656E16
:101450007A68656E000000003C350020582E0020A0
:10146000D2AABDE2CEF6B5C4D7D6B7FBB4AECEDEB7
:10147000D0A7A3ACBDE2CEF6CAA7B0DC0D0A00002F
:10148000726573756C7473006C6F636174696F6EF1
:10149000000000006E616D65000000000D0AB3C71A
:1014A000CAD03A25730D0A002F3300206461696C9D
:1014B000790000006C6F7700BDF1CCECD7EEB5CDB4
:1014C000CEC2B6C8A3BA25730D0A00006869676862
:1014D00000000000BDF1CCECD7EEB8DFCEC2B6C83C
:1014E000A3BA25730D0A0000636F64655F646179B8
:1014F00000000000BDF1CCECB0D7CCECCCECC6F8D1
:10150000B4FAC2EBA3BA25730D0A0000C3F7CCEC02
:10151000D7EEB5CDCEC2B6C8A3BA25730D0A00006A
:10152000C3F7CCECD7EEB8DFCEC2B6C8A3BA2573EA
:101530000D0A0000C3F7CCECB0D7CCECCCECC6F86D
:10154000B4FAC2EBA3BA25730D0A0000BAF3CCECCF
:10155000D7EEB5CDCEC2B6C8A3BA25730D0A00002A
:10156000BAF3CCECD7EEB8DFCEC2B6C8A3BA2573B7
:101570000D0A0000BAF3CCECB0D7CCECCCECC6F83A
:10158000B4FAC2EBA3BA25730D0A00002DE9F047A7
:10159000314807F0BCFF8046B8F1000F05D12FA0FD
:1015A00007F062F90020BDE8F08732A1404607F05D
:1015B00097FF8146D9F81000FEF741FE012804D0BC
:1015C000404607F055FF0020EDE72CA1404607F00C
:1015D00087FF074627B9404607F04AFF0020E2E7A9
:1015E00028A1384607F07CFF064626B9404607F09A
:1015F0003FFF0020D7E726A1384607F071FF0446D9
:1016000024B9404607F034FF0020CCE723A1384638
:1016100007F066FF054625B9404607F029FF002080
:10162000C1E720A0216907F01FF923A0296907F06D
:101630001BF925483169FEF7EAFD23482338216963
:10164000FEF7E5FD2048401F2969FEF7E0FD404612
:1016500007F00EFF0120A6E7582E0020D2AABDE217
:10166000CEF6B5C4D7D6B7FBB4AECEDED0A70D0A42
:1016700000000000737563636573730072657375B2
:101680006C74000074696D657374616D70000000A6
:101690006461746574696D655F3100007765656BC1
:1016A0005F3100000D0AB5B1C7B0CAB1BCE4A3BA3E
:1016B00025730D0A00000000BDF1CCECCAC7D6DCD2
:1016C00025730D0A00000000C83500202DE9F84FF1
:1016D000484807F01CFF0090009828B946A007F082
:1016E000C3F80020BDE8F88F4BA1009807F0F8FE82
:1016F000074627B9009807F0BBFE0020F2E700215B
:10170000384607F0E1FE8046B8F1000F04D100989A
:1017100007F0AEFE0020E5E741A1404607F0E0FEFD
:101720008146B9F1000F04D1009807F0A1FE002016
:10173000D8E73EA1484607F0D3FE054625B90098F4
:1017400007F096FE0020CDE73AA0296907F08CF853
:101750003BA1404607F0C4FE8246BAF1000F04D117
:10176000009807F085FE0020BCE736A1504607F040
:10177000B7FE044624B9009807F07AFE0020B1E7CE
:1017800033A0216907F070F835482169FEF73FFD65
:1017900034A1504607F0A4FE064624B9009807F08D
:1017A00067FE00209EE731A0316907F05DF833A1A4
:1017B000504607F095FE834624B9009807F058FE7E
:1017C00000208FE72FA0DBF8101007F04DF830480D
:1017D0002969FEF71CFD2E4814303169FEF717FD0C
:1017E0002B4817302169FEF712FD009807F040FEE4
:1017F000012077E7582E0020D2AABDE2CEF6B5C46C
:10180000D7D6B7FBB4AECEDED0A7A3ACBDE2CEF642
:10181000CAA7B0DC0D0A0000726573756C747300A2
:101820006C6F636174696F6E000000006E616D65BE
:10183000000000000D0AB3C7CAD03A25730D0A0094
:101840006E6F770074656D70657261747572650096
:10185000CFD6D4DACEC2B6C8A3BA25730D0A00001B
:101860002E000020636F646500000000CCECC6F819
:10187000B4FAC2EBA3BA25730D0A0000746578743C
:1018800000000000CCECC6F8A3BA25730D0A0000D6
:101890000C33002008B50121102001F061FE10205A
:1018A0008DF8030003208DF802000520ADF800003C
:1018B0006946024800F0DAFD08BD00000010014052
:1018C00010B5012001F05CFE002001F059FE10BDB2
:1018D00008B5014600200090034800900098084495
:1018E00000900098008808BD006C004008B50022F8
:1018F0000092044A0092009A02440092009A1160F9
:1019000008BD0000006C00401CB514A103C9CDE95E
:10191000000101214FF0C05001F012FE012001F042
:10192000E5FC9DF801009DF8002040EA022104201A
:10193000FFF7DCFF9DF803009DF8022040EA02213A
:101940000820FFF7D3FF9DF805009DF8042040EA2A
:1019500002210C20FFF7CAFF1CBD0000D6DCD0C757
:10196000B3BF000000BFFEE730B5C1B004460D466E
:101970004FF4807101A8FEF718FC00F007FC022369
:101980004FF496721CA11DA006F012FB28B11CA0FA
:1019900006F06AFF012041B030BD1DA006F064FFD3
:1019A00002234FF4FA7214A11DA006F001FB20B12E
:1019B0001EA006F059FF0220EDE722A006F054FF1A
:1019C0002B46224625A101A806F05EFF022342F223
:1019D000107209A101A806F0EBFA20B124A006F0CC
:1019E00043FF0320D7E727A006F03EFF2AA006F01A
:1019F0003BFF0020CFE700004F4B000041540000A8
:101A0000415420B2E2CAD4CAA7B0DC0D0A000000DB
:101A1000415420B2E2CAD4B3C9B9A60D0A000000ED
:101A200041542B43574D4F44453D310041542B43C6
:101A3000574D4F444520C9E8D6C3CAA7B0DC0D0AAC
:101A40000000000041542B43574D4F444520C9E846
:101A5000D6C3B3C9B9A60D0A0000000041542B43F8
:101A6000574A41503D222573222C22257322000023
:101A700041542B43574A415020C9E8D6C3CAA7B0A6
:101A8000DC0D0A0041542B43574A415020C9E8D687
:101A9000C3B3C9B9A60D0A00C8C8B5E3C1ACBDD36C
:101AA000B3C9B9A60D0A000030B5A1B004460D4671
:101AB000802101A8FEF779FB022341F2883223A19D
:101AC00023A006F075FA01280DD124A006F0CCFE63
:101AD0002AA12DA0FFF748FF28B12EA006F0C4FED2
:101AE000012021B030BD2B46224630A101A806F0CE
:101AF000CBFE02234FF4FA6214A101A806F058FAB3
:101B0000012804D130A006F0AFFE0220E9E702234D
:101B10004FF4FA720DA132A006F04AFA012804D15E
:101B200033A006F0A1FE0320DBE702234FF4FA7294
:101B300036A137A006F03CFA012804D137A006F000
:101B400093FE0420CDE70020CBE700004F4B0000C0
:101B500041542B43574A41503F000000CEB4BCECE7
:101B6000B2E2B5BDC1ACBDD3C8C8B5E30D0AD6D885
:101B7000C1ACD6D02E2E2E2E0D0A000038383838A3
:101B80003939393900000000746573747769666902
:101B900031323300CEB4BCECB2E2B5BDC8C8B5E357
:101BA0002CCDCBB3F621210D0A00000041542B436C
:101BB000495053544152543D22544350222C222523
:101BC00073222C2564000000C1ACBDD3B7FECEF15A
:101BD000C6F7CAA7B0DCA3ACCDCBB3F60D0A0000A4
:101BE00041542B4349504D4F44453D3100000000C6
:101BF000BFAAC6F4CDB8B4ABC4A3CABDCAA7B0DCF3
:101C0000A3ACCDCBB3F60D0A000000003E000000EF
:101C100041542B43495053454E440000BDF8C8EB96
:101C2000CDB8B4ABC4A3CABDCAA7B0DCA3ACCDCBFE
:101C3000B3F60D0A0000000010B51D48006812F050
:101C4000F9F900F051F802F0E3F9002303224FF410
:101C50007A71184813F020FC174908600023042209
:101C600041F28831154813F017FC1549086000232C
:101C700004220A21134813F00FFC134908600023C3
:101C800004220A21114813F007FC114908600023BF
:101C900004220A210F4813F0FFFB0F4908600023BC
:101CA00001220E490E4813F0F7FB0E49086010BDE3
:101CB00050000020E131000858000020079F000874
:101CC0005C00002009A1000868000020D99F0008DE
:101CD0007000002065960008740000200051250265
:101CE000756B01087800002010B5002305224FF421
:101CF0007A710C4813F0D0FB0B49086000230122D5
:101D00004FF4FA61094813F0C7FB09490860002342
:101D1000042241F28831074813F0BEFB06490860EF
:101D200010BD0000D56D010860000020E96B0108BE
:101D300064000020716D01086C00002038B5044675
:101D40000121080201F00CFC03208DF802004FF481
:101D50000060ADF800001CB914208DF8030002E00B
:101D600004208DF803006946014800F07FFB38BD70
:101D70000020014021B1026842F00102026004E04B
:101D800002684FF6FE731A400260704701684FF612
:101D9000FE72114001600021016041608160C160FC
:101DA0004B49884208D14A490839496841F00F0136
:101DB000474A083A51608AE045491431884208D1BF
:101DC00043490839496841F0F001414A083A5160F5
:101DD0007DE03F492831884208D13D4908394968AA
:101DE00041F470613A4A083A516070E038493C3138
:101DF000884208D136490839496841F47041344A6B
:101E0000083A516063E032495031884208D1304984
:101E10000839496841F470212D4A083A516056E06A
:101E20002B496431884208D129490839496841F46D
:101E30007001274A083A516049E0254978318842C3
:101E400008D123490839496841F07061204A083AAD
:101E500051603CE01F49884206D1011F096841F0EA
:101E60000F01021F116032E01A491431884208D173
:101E70001849091F096841F0F001164A121F116044
:101E800025E014492831884208D11249091F096800
:101E900041F470610F4A121F116018E00D493C3186
:101EA000884208D10B49091F096841F47041094A69
:101EB000121F11600BE007495031884207D10549D4
:101EC000091F096841F47021024A121F116070470E
:101ED000080002400804024010B50022026847F6DC
:101EE000F0739A430C6A8B6823430C6923434C6953
:101EF00023438C692343CC6923434C6A23438C6A74
:101F000023431A430260CB6843600B6883604B68CD
:101F1000C36010BD7047000010B50648006813F09C
:101F20007FFB0548006813F07BFB0448006813F052
:101F300077FB10BD60000020640000206C000020D2
:101F400070B54FF47A7300FB03F1002247E000BF45
:101F500000BF00BF00BF00BF00BF00BF00BF00BF89
:101F600000BF00BF00BF00BF00BF00BF00BF00BF79
:101F700000BF00BF00BF00BF00BF00BF00BF00BF69
:101F800000BF00BF00BF00BF00BF00BF00BF00BF59
:101F900000BF00BF00BF00BF00BF00BF00BF00BF49
:101FA00000BF00BF00BF00BF00BF00BF00BF00BF39
:101FB00000BF00BF00BF00BF00BF00BF00BF00BF29
:101FC00000BF00BF00BF00BF00BF00BF00BF00BF19
:101FD00000BF00BF00BF00BF00BF00BF00BF13466F
:101FE0000C46491E62F100020026744073401C43F7
:101FF000ADD170BD47E000BF00BF00BF00BF00BF54
:1020000000BF00BF00BF00BF00BF00BF00BF00BFD8
:1020100000BF00BF00BF00BF00BF00BF00BF00BFC8
:1020200000BF00BF00BF00BF00BF00BF00BF00BFB8
:1020300000BF00BF00BF00BF00BF00BF00BF00BFA8
:1020400000BF00BF00BF00BF00BF00BF00BF00BF98
:1020500000BF00BF00BF00BF00BF00BF00BF00BF88
:1020600000BF00BF00BF00BF00BF00BF00BF00BF78
:1020700000BF00BF00BF00BF00BF00BF00BF00BF68
:1020800000BF00BF00BF011EA0F10100B3D1704727
:1020900010B54FF4FA70FFF753FF00F077F8022302
:1020A0004FF47A720AA10BA005F082FF012807D134
:1020B0000BA006F0D9FB3220FFF742FF002010BD35
:1020C0000EA006F0D1FB3220FFF73AFF0120F6E721
:1020D0004F4B000041542B434950434C4F53450054
:1020E000D3EBB7FECEF1C6F7B6CFBFAACAA7B0DC16
:1020F000A3ACCDCBB3F60D0A00000000B3C9B9A65E
:10210000B6CFBFAAD3EBB5B1C7B0B7FECEF1C6F715
:10211000B5C4C1ACBDD30D0A0000000010B505F078
:102120007DFF4FF47A70FFF70BFF0AA10CA0FFF7B9
:102130001BFC012804D10DA006F096FB002010BD69
:102140000EA006F091FB0C21012001F0BFF9012047
:10215000F5E70000383838383939393900000000DF
:1021600074657374776966693132330077696669BB
:10217000C1ACBDD3CAA7B0DC0D0A0000776966699F
:10218000C1ACBDD3B3C9B9A60D0A000010B504A0F7
:1021900005F002FF4FF49670FFF7D2FE10BD00006D
:1021A0002B2B2B0010B5012000F00CF8012801D1D9
:1021B00000F002F810BD00000149086070470000FF
:1021C00014040140014600200022074B1B6803EA6B
:1021D0000102054B14331B680B4013B10AB10120F7
:1021E00000E00020704700000004014051B182006F
:1021F000A2F1C042126842F001038200A2F1C04283
:10220000136009E08200A2F1C0421268034B1A4039
:102210008300A3F1C0431A6070470000FEFF0F0067
:10222000D0E901121143C2681143026911434269A6
:10223000114382691143C2691143026A1143426A20
:102240001143826A1143C26A1143026B114302684F
:102250009200A2F1C0421160816808290BD1016887
:102260008900A1F1C041096841F04002016889007C
:10227000A1F1C0410A60416B0968426B526841EAB2
:102280000211426B926841EA0221426B928941EA53
:102290000241426B128A41EA0251426B127D41EACD
:1022A0000261426B926911430268521C9200A2F1D2
:1022B000C0421160C16AB1F5804F1BD1816B0968C2
:1022C000826B526841EA0211826B926841EA0221F4
:1022D000826B128A41EA0251826B127D41EA0261ED
:1022E000826B9269114302689200A2F1C042C2F867
:1022F000041107E06FF0704201688900A1F1C0414C
:10230000C1F80421704770B505460E46144602E038
:102310000120FFF715FE201EA4F1010405D031466F
:102320002846FDF74DFF0028F2D031462846FDF73C
:1023300047FF70BD10B510A000F03AF808B90020B2
:1023400010BD10A000F034F808B90020F8E70FA085
:1023500000F02EF808B90020F2E70FA000F028F8EE
:1023600008B90020ECE70FA000F022F808B900201F
:10237000E6E70120E4E700007A68656E677A686F37
:10238000750000006265696A696E67007368616E56
:1023900067686169000000006775616E677A686F41
:1023A000750000007368656E7A68656E0000000055
:1023B00010B5ADF5007D04464FF400716846FDF799
:1023C000F4FE502113A0FFF76FFB234616A21B4912
:1023D000684606F059FA234613A21949684606F0E2
:1023E00053FA684601F08CFD2046FEF771FE18B1E5
:1023F00014A006F039FA06E017A006F035FA00201E
:102400000DF5007D10BDFFF743FE08B90020F7E78A
:102410000120F5E76170692E73656E6976657273E8
:10242000652E636F6D000000535048373357476681
:1024300032725763506C686A67000000A88D070805
:102440003C8D0708CCECC6F8CAFDBEDDBDE2CEF679
:10245000B3C9B9A60D0A0000CCECC6F8CAFDBEDDB2
:10246000BDE2CEF6CAA7B0DC0D0A00002DE9F041AE
:10247000024600250026002000230024002791F8B2
:1024800003C00CF00F0591F803C00CF0100CBCF168
:10249000000F03D091F802C04CEA050591F800C086
:1024A000BCF1000F31D0146800202BE04FF0010C7C
:1024B0000CFA00F3B1F800C00CEA03069E4220D1EA
:1024C00083004FF00F0C0CFA03F7BC4305FA03FC32
:1024D0004CEA040491F803C0BCF1280F06D14FF078
:1024E000010C0CFA00FCC2F814C00AE091F803C019
:1024F000BCF1480F05D14FF0010C0CFA00FCC2F8FA
:1025000010C0401C0828D1D31460B1F800C0BCF141
:10251000FF0F34DD546800202EE000F1080C4FF06E
:10252000010808FA0CF3B1F800C00CEA03069E4259
:1025300021D183004FF00F0C0CFA03F7BC4305FACE
:1025400003FC4CEA040491F803C0BCF1280F05D148
:1025500000F1080C08FA0CF8C2F8148091F803C0D6
:10256000BCF1480F07D100F1080C4FF0010808FA40
:102570000CF8C2F81080401C0828CED35460BDE887
:10258000F0810246002093680B400BB1012000E06F
:1025900000207047416170470161704700B5ADF59B
:1025A000017D4FF4007101A8FDF7FFFD502110A03F
:1025B000FFF77AFA13A316A21A4901A806F064F9E4
:1025C00001A801F09DFCFFF781F818B116A006F0F4
:1025D0004BF906E019A006F047F900200DF5017D42
:1025E00000BDFFF755FD08B90020F7E70120F5E72A
:1025F0006170692E73656E6976657273652E636F9F
:102600006D0000005A68656E677A686F750000009B
:10261000535048373357476632725763506C686A75
:1026200067000000A88D0708CCECC6F8CAFDBEDD27
:10263000BDE2CEF6B3C9B9A60D0A0000CCECC6F8CF
:10264000CAFDBEDDBDE2CEF6CAA7B0DC0D0A0000B1
:102650002DE9FC4100250020FFF770FB4FF40061DD
:102660005B48FFF797FF1420FFF76AFC4FF4006107
:102670005748FFF791FF0120FFF760FB00BF09E01B
:102680000120FFF7B7FC681CC5B2642D02DD0220F3
:10269000BDE8FC814FF400614D48FFF772FF01284F
:1026A000EED0002508E00120FFF7A4FC681CC5B2AD
:1026B000642D01DD0320EBE74FF400614448FFF790
:1026C00060FF0028EFD0002000900190002462E01D
:1026D000002508E00120FFF78DFC681CC5B2642DC1
:1026E00001DD0420D4E74FF400613948FFF749FFCA
:1026F0000128EFD0002508E00120FFF77BFC681CD3
:10270000C5B2642D01DD0520C2E74FF400613048F9
:10271000FFF737FF0028EFD01E20FFF76BFC4FF4C8
:1027200000612B48FFF72DFFD0B1E21704EB527286
:10273000D2101DF802202146E31704EB5373DB107F
:10274000A4EBC303C3F107070123BB401A43D2B272
:102750002046E31704EB5373DB100DF8032018E059
:10276000E21704EB5272D2101DF802202146E31743
:1027700004EB5373DB10A4EBC303C3F1070701237E
:10278000BB409A432046E31704EB5373DB100DF86C
:102790000320601CC4B2282C9ADB9DF800009DF831
:1027A000011008449DF8021008449DF803100844E5
:1027B000C6B29DF80400B04208D19DF80200054958
:1027C00008709DF800004870002061E706205FE770
:1027D000002001404900002010B5FFF79FFC28B9F8
:1027E0000DA006F041F84FF0FF3010BD0EA006F02E
:1027F0003BF801F0CFF910B94FF0FF30F5E7FFF7E4
:10280000CDFEFFF797FD28B90BA006F02DF84FF08D
:10281000FF30EAE700BFE8E757494649C1ACBDD3FE
:10282000CAA7B0DC0D0A00000D0AB3F5CABCBBAFE5
:10283000CDEAB3C90D0A0000BBF1C8A135CCECCC80
:10284000ECC6F8CAA7B0DC0D0A00000000BFFEE726
:102850000146CA1701EB92729210A1EB820292B963
:10286000642091FBF0F200FB121050B94FF4C870D5
:1028700091FBF0F200FB121008B901207047002014
:10288000FCE70120FAE70020F8E7000010B500247B
:1028900040212B48FFF775FE78B91420FFF750FB55
:1028A00040212748FFF76DFE38B900BF402124487A
:1028B000FFF767FE0028F9D0042420212048FFF705
:1028C00060FE78B91420FFF73BFB20211C48FFF77E
:1028D00058FE38B900BF20211948FFF752FE0028E2
:1028E000F9D0032410211648FFF74BFE78B91420C5
:1028F000FFF726FB10211248FFF743FE38B900BF4F
:1029000010210F48FFF73DFE0028F9D002240121D5
:102910000C48FFF736FE012810D11420FFF710FBFA
:1029200001210848FFF72DFE012807D100BF012132
:102930000448FFF726FE0128F9D00124204610BDE7
:10294000001001400008014008B50121142000F0EA
:1029500007FE04208DF8030003208DF802000120FB
:10296000ADF8000069460548FFF780FD7020ADF81E
:10297000000069460248FFF779FD08BD00080140E4
:102980000010014070B504460026174805884088AD
:1029900045431548808846F60401884216D11248FE
:1029A0008079012812D100200F4988712A2048819E
:1029B0002B2088810021084600F0E0FA01200A4916
:1029C00088712B2048812A20888103E00021084655
:1029D00000F0D4FA00F0F2FB002602E00348048085
:1029E000761CAE42FAD370BD4A2E00200008006C5F
:1029F00010B50446002C73D179498871F020088005
:102A00004FF4A07048800846808849F241318842DE
:102A100011D07348808849F2864188420BD07048B3
:102A2000808846F60401884205D06D48808845F2CA
:102A30001031884220D12C20694908812A20488100
:102A40002B2088810846808846F6040188420BD0F6
:102A50006348808845F21031884205D060488088FC
:102A600049F28641884206D14FF4A0705C49088043
:102A70004FF4F0704880AEE05948808845F210511C
:102A8000884210D14FF43050554908814FF42850F6
:102A900048814FF42C5088814FF4F07008804FF437
:102AA0004870488097E04E48808841F6631188421C
:102AB0000DD12C204A4908812B2048812A20888169
:102AC0004FF4F07008804FF44870488083E0222073
:102AD0004349088120204881212088817BE0FFE74D
:102AE00001203F4988714FF4A0700880F020488091
:102AF0000846808849F2413188420BD038488088A6
:102B000049F28641884205D03548808845F2103127
:102B1000884207D12C20324908812A2048812B2065
:102B200088813FE02E48808846F60401884207D11C
:102B30002C202B4908812B2048812A20888131E0D4
:102B40002748808845F21051884210D14FF4305008
:102B5000234908814FF4285048814FF42C50888134
:102B60004FF4487008804FF4F07048801AE01C4819
:102B7000808841F6631188420DD12C2018490881C4
:102B80002A2048812B2088814FF4487008804FF418
:102B9000F070488006E022201149088121204881F8
:102BA000202088810E48808846F6040188420BD098
:102BB0000B48808845F21031884205D0084880884B
:102BC00049F28641884206D14FF4F07004490880EA
:102BD0004FF4A0704880002000F054F810BD0000B1
:102BE0004A2E002070B505460E461446314628464A
:102BF00000F0C4F900F0E2FA0148048070BD000062
:102C00000008006C08B5034800880090BDF800007B
:102C100008BD00000008006C10B50446204600F016
:102C2000C1FA0520FFF7E6F9FFF7ECFF10BD000041
:102C30002DE9F0470446BE2000F0B4FA052000F06C
:102C4000A5FA2046FDF72EFC07464FF066320C4BE6
:102C5000FDF7B6FB0546FDF751FC1FFA80F9484623
:102C600000F094FA012000F091FAFF2000F08EFAB3
:102C7000002000F08BFA002000F088FABDE8F08711
:102C800066660440F0B5054600240027BA488079FE
:102C900001280BD1B848808846F60401884205D047
:102CA000B548808841F66311884208D1B2488079DE
:102CB000F0B9B148808841F66311884218D1082DD7
:102CC00015D2DFE805F00406080A0C0E10120625DE
:102CD0000DE007250BE0042509E0052507E00125A7
:102CE00005E0002503E0032501E0022500BF00BF49
:102CF000A148808849F2413188421DD09E48808891
:102D000049F28641884217D09B48808846F60401E4
:102D1000884211D09848808845F2103188420BD003
:102D20009548808845F21051884205D092488088A5
:102D300041F6631188427DD1082D1CD2DFE805F0F1
:102D40000406090C0F12151800BF14E044F08004AB
:102D500011E044F040040EE044F0C0040BE044F005
:102D6000200408E044F0600405E044F0A00402E020
:102D700044F0E00400BF00BF7F48808845F2105156
:102D8000884202D14FF4585700E036277A488088AD
:102D900045F2103188420DD07748808845F21051B5
:102DA000884207D07448808841F66311884201D078
:102DB00044F008047048808846F60401884201D136
:102DC00044F002042146384600F002FA6A4880883E
:102DD00041F6631188421DD004F0200068B16648B6
:102DE000008865494988884214DA63480688408823
:102DF00061490880084646800CE05F4800885E49CB
:102E00004988884206DD5C48068840885A4908801F
:102E1000084646805848808845F21051884254D16F
:102E20005549488900F0BEF9002000F0AFF9524939
:102E3000498900E078E0491C88B200F0B3F900202D
:102E400000F0A4F94C494989891C88B200F0AAF91C
:102E500049490988491EC1F30F2000F097F94649F6
:102E60004989C91C88B200F09DF943490978491E77
:102E7000C8B200F08BF94049888900F093F900202E
:102E800000F084F93C498989491C88B200F08AF92C
:102E9000002000F07BF938498989891C88B200F04C
:102EA00081F935494988491EC1F30F2000F06EF9B8
:102EB00031498989C91C88B200F074F92E49897892
:102EC000491EC8B200F062F955E02B49488900F06C
:102ED00069F9002000F05AF9002000F057F926495E
:102EE0000988491EC1F30F2000F050F922490978E2
:102EF000491EC8B200F04AF91F49888900F052F90A
:102F0000002000F043F9002000F040F91A494988F8
:102F1000491EC1F30F2000F039F917498978491E7D
:102F2000C8B200F033F926E0082D1CD2DFE805F026
:102F300004070A0D0F12151844F0300413E044F092
:102F4000100410E044F020040DE000BF0BE044F05A
:102F5000380408E044F0280405E044F0180402E0D6
:102F600044F0080400BF00BF032744F48054214606
:102F7000384600F02DF9F0BD4A2E002030B5044649
:102F80000D468148808849F24131884205D07E480B
:102F9000808845F21031884214D17B49488900F07D
:102FA00001F9201200F0F2F8E0B200F0EFF87649F3
:102FB000888900F0F7F8281200F0E8F8E8B200F08D
:102FC000E5F8E0E07048808849F2864188422ED1D9
:102FD0006D49488900F0E6F8201200F0D7F8E0B219
:102FE00000F0D4F868490988491EC1F30F2000F0A9
:102FF000CDF865490978491EC8B200F0C7F86249A2
:10300000888900F0CFF8281200F0C0F8E8B200F08C
:10301000BDF85D494988491EC1F30F2000F0B6F89C
:1030200059498978491EC8B200F0B0F8ABE056485B
:10303000808846F6040188421DD1534880790128D2
:1030400004D151480088401E001B84B24E49488973
:1030500000F0A8F8201200F099F8E0B200F096F81D
:103060004949888900F09EF8281200F08FF8E8B2EC
:1030700000F08CF887E04448808841F6631188426C
:1030800047D141488079A8B93F480088401E001BBD
:1030900084B23D49488900F085F8002000F076F8B8
:1030A000002000F073F8201200F070F8E0B200F099
:1030B0006DF816E03449488900F074F8201200F0E9
:1030C00065F8E0B200F062F82F490988491EC1F3A3
:1030D0000F2000F05BF82C490978491EC8B200F0B7
:1030E00055F82949888900F05DF8281200F04EF85B
:1030F000E8B200F04BF824494988491EC1F30F207B
:1031000000F044F820498978491EC8B200F03EF822
:1031100039E01D48808845F21051884220D11A4973
:10312000488900F03FF8201200F030F8164949892C
:10313000491C88B200F036F8E0B200F027F81249D6
:10314000888900F02FF8281200F020F80E498989AC
:10315000491C88B200F026F8E8B200F017F812E037
:1031600009488079012804D107480088401E001BC7
:1031700084B205494889214600F02AF80249888925
:10318000294600F025F830BD4A2E002001B5BDF8D3
:1031900000000090BDF800000149088008BD000053
:1031A0000008006C01B5BDF800000090BDF80000FB
:1031B0000149088008BD0000FE07006C0248008934
:1031C00002490880704700004A2E0020FE07006C6C
:1031D000024A1080921C118070470000FE07006CAC
:1031E0000349096881F00401014A11607047000039
:1031F0000C18014008B50121402000F0B1F901216F
:10320000402000F0ADF90121402000F0A9F9012192
:10321000402000F0A5F910208DF8030003208DF860
:1032200002000420ADF8000069461148FFF71EF9BE
:103230000820ADF8000069460D48FFF717F9102087
:10324000ADF8000069460A48FFF710F90421084864
:10325000FFF7A2F908210648FFF79EF9102104485C
:10326000FFF79AF920210248FFF796F908BD000000
:103270000018014000BFFEE77047000070B5002154
:1032800000230F22C47804B3154C246804F4E064CE
:10329000C4F5E064210AC1F10403CA40447804FA89
:1032A00003F184781440214309010E4C0678A1559E
:1032B000047804F01F050124AC4005786D11AD00C1
:1032C00005F1E025C5F8004109E0047804F01F0588
:1032D0000124AC40044D0678761145F8264070BDB7
:1032E0000CED00E000E400E080E100E0014908624C
:1032F0007047000000000E42704700002DE9F05FAB
:1033000080460C4615461E46DDF828902046FCF700
:1033100096FF07465EA14046FCF76BFF18B91320E5
:103320005E49087029E05EA14046FCF762FF18B9CB
:1033300016205A49087020E05BA14046FCF759FF6F
:1033400018B919205549087017E05AA14046FCF7F2
:1033500050FF18B91C20514908700EE058A1404692
:10336000FCF747FF18B91F204C49087005E01121F0
:10337000012000F0ABF8BDE8F09FB9F1000F06D0D6
:10338000B9F1010F09D0B9F1020F16D10DE0434890
:103390000178022000F09AF80FE040480078401CC5
:1033A000C1B2022000F092F807E03C480078801C8F
:1033B000C1B2022000F08AF800BF00BF112F46D230
:1033C000DFE807F0090A0B0C1116171C1D22272C29
:1033D0004531363B400000BF00BF00BF0321022043
:1033E00000F074F833E00421022000F06FF82EE0C2
:1033F00000BF0621022000F069F828E000BF082184
:10340000022000F063F822E00921022000F05EF8BB
:103410001DE00A21022000F059F818E00B210220DB
:1034200000F054F813E00D21022000F04FF80EE0F8
:103430000E21022000F04AF809E00F21022000F0DE
:1034400045F804E01021022000F040F800BF00BF62
:103450002846FCF7F4FE82463046FCF7F0FE834631
:103460001121022000F032F8504613F00DFA10211D
:10347000012000F02BF81221022000F027F8584616
:1034800013F002FA1021012000F020F800BF72E7CB
:103490005A68656E677A686F750000004800002002
:1034A0004265696A696E67005368616E6768616941
:1034B000000000004775616E677A686F7500000054
:1034C0005368656E7A68656E0000000070B5054649
:1034D0000C467E2004F044FC052004F041FC422010
:1034E00004F03EFC284604F03BFC204604F038FC87
:1034F00085F0470080EA0406304604F031FCEF20F6
:1035000004F02EFC70BD000001460020034A506804
:1035100020F4404008435060704700000010024013
:1035200029B1064A52690243044B5A6104E0034A36
:1035300052698243014B5A617047000000100240FB
:1035400029B1064AD2690243044BDA6104E0034A16
:10355000D2698243014BDA617047000000100240DB
:1035600029B1064A92690243044B9A6104E0034A76
:1035700092698243014B9A6170470000001002403B
:1035800001490860704700004004424230B5002104
:103590000022002400232D4D6D6805F00C0121B19F
:1035A000042905D0082923D105E0294D056022E032
:1035B000274D05601FE0254D6D6805F47012234D01
:1035C0006D6805F48034022505EB92421CB9214D4B
:1035D000554305600BE01D4D6D6805F400351DB1C8
:1035E0001C4D5543056002E0194D5543056002E04E
:1035F000174D056000BF00BF144D6D6805F0F00168
:103600000909154D6B5C0568DD4045600F4D6D681F
:1036100005F4E061090A104D6B5C4568DD4085608A
:103620000A4D6D6805F46051C90A0B4D6B5C456825
:10363000DD40C560054D6D6805F44041890B074DBF
:103640006B5CC568B5FBF3F5056130BD0010024049
:1036500000127A0000093D00880000209800002038
:1036600010B501460022002300204A11012A02D190
:10367000094C236806E0022A02D1074C236A01E0C4
:10368000054C636A01F01F02012494401C400CB1F8
:10369000012000E0002010BD001002400149086038
:1036A00070470000800442420149086070470000F2
:1036B0003C0442420249096A0143014A11627047CF
:1036C00000100240024909888143014A1180704775
:1036D000042800400348008840F010000149088099
:1036E0007047000004280040034800884FF6EF713F
:1036F00008400149088070470428004070B5002642
:103700000024002500F07AF806463848B6FBF0F4AD
:1037100037480088A0423CD035490C8040F2B27551
:1037200010E02846FFF794F840B1B4F5B77F02D314
:10373000A4F5B77404E0681C85B206E0A4F26D1429
:10374000681C85B2B4F5B67FEBD800BF29488580E8
:10375000002516E027498888FFF77AF830B1012D57
:1037600004D11D2C01D31D3C09E00CE02248405D32
:10377000A04203D82048405D241A00E003E0681C02
:1037800085B21C2CE6D200BF681C1A498871601CE7
:10379000C8711648B6FBF0F100FB11644FF461608C
:1037A000B4FBF0F0134908704FF46160B4FBF0F122
:1037B00000FB11403C21B0FBF1F00E4948704FF482
:1037C0006160B4FBF0F100FB11403C21B0FBF1F271
:1037D00001FB1200074988700B46DA7999799888BD
:1037E00000F028F803490872002070BD80510100E4
:1037F0002C0000203C0E0020B67101080021034877
:103800000188001F008841EA004070471C280040E2
:1038100001460020064A12880A40D0B2044A121F0C
:1038200012880A4012B108B1012000E00020704760
:1038300004280040F0B503460C461546642093FB6F
:10384000F0F0C6B2642093FBF0F700FB1730C1B272
:10385000132E02DD01F16400C1B20846CF1701EB5F
:10386000977701EBA707BAB2072092FBF0F700FBAE
:10387000172082B25719601EDFF82CC01CF8000018
:10388000384482B2CF1701EB9777BF10A1EB8707BF
:103890001FB9032C01DA501E82B2072092FBF0F709
:1038A00000FB1720C0B2F0BDAA71010810B50220BC
:1038B000FFF7AEFF18B30220FFF704FFFFF71EFF6C
:1038C000FFF79CFF00F56160134908600846006837
:1038D00008600846006800F0B7F801200F498870BA
:1038E0000F48007814280ADA0D480078082806DD09
:1038F0000B49087813F014F80AA004F0B5FF012072
:10390000FFF786FF20B1FFF7F9FE0520FFF7DAFE8B
:1039100000F004FA10BD0000280000202400002060
:103920003C0E0020C4D6D6D3CAB1BCE4B5BD0D0A46
:103930000000000029B1064A12880243044B1A8095
:1039400004E0034A12888243014B1A80704700004A
:10395000002800401CB5002401214FF0C050FFF7A3
:10396000EFFD0120FFF7C2FC0120FFF797FE04E006
:10397000601CC4B20A20FEF7E3FA6120FFF770FE74
:1039800008B9FA2CF4DBFA2C01DB01201CBD042061
:10399000FDF79EFF4AF2A55188422FD0FDF790FF18
:1039A0004FF44070FFF786FE0120FFF77DFE00F028
:1039B000B5F900F0BDF900F0B1F9FFF78BFE4FF259
:1039C000234000F0D7F800F0A9F900202C210A23A9
:1039D0000F22CDE90010072140F2E67000F04AF80E
:1039E00000F09CF9FFF780FE4AF2A5510420FDF794
:1039F0007DFF01210846FFF79DFF0FE0FDF784FFE3
:103A000000F096F901210846FFF794FF00F086F9CF
:103A100001210220FFF78EFF00F080F900F004F88A
:103A2000FFF76CFE0020B1E708B503208DF8000019
:103A300000208DF801008DF8020001208DF80300B0
:103A40006846FFF71BFC08BD10B5044601214FF086
:103A5000C050FFF775FD0120FFF748FC04490878C6
:103A600012F05EFF204600F069F800F057F910BD33
:103A70003C0E00202DE9F05F06460F469046994621
:103A8000DDE90AAB002440F2B270864203DB40F667
:103A90003300864202DD0120BDE8F09F40F2B2759E
:103AA0000AE02846FEF7D4FE10B12048044401E0A5
:103AB0001F480444681C85B2B542F2DB781EC7B2C9
:103AC000002510E01B48405D40F2A321484304EB71
:103AD000C0143046FEF7BCFE18B1012D01D11648C6
:103AE0000444681C85B2BD42ECDBA8F1010040F241
:103AF000A321484304EBC014C9EB4910C0EB0920D3
:103B000004EB0014CAEB0A1004EB80045C440121AE
:103B10004FF0C050FFF714FD0120FFF7E7FB2046F0
:103B200000F01AF800F0FAF80020B5E70085E2018D
:103B30008033E101B67101088051010000B50246F1
:103B4000FFF7C8FD100C03490880091D0A80FFF724
:103B5000CBFD00BD2028004000B50246FFF7BAFDAE
:103B6000100C03490880091D0A80FFF7BDFD00BD48
:103B70001828004000B50246FFF7ACFDC2F3034031
:103B800003490880091D0A80FFF7AEFD00BD000053
:103B90000828004010B5ADF5007D4FF47A70FEF7AF
:103BA000CFF94FF400716846FCF7FFFA502116A0D8
:103BB000FDF77AFF18496846FCF729FB684600F0D4
:103BC0009FF9FDF7E3FC18B114A004F04DFE06E0E8
:103BD00017A004F049FE00200DF5007D10BDFEF792
:103BE00057FA08B90020F7E71648FCF735FB0446FA
:103BF00047F282000444204600F032F812A004F09C
:103C000033FE0120E8E700006170692E6B37383021
:103C10002E636F6D00000000C88C0708CAB1BCE4B9
:103C2000CAFDBEDDBDE2CEF6B3C9B9A60D0A0000DD
:103C3000CAB1BCE4CAFDBEDDBDE2CEF6CAA7B0DCA7
:103C40000D0A0000C8350020CFF2CDF8C2E7D0A39E
:103C5000D7BCCAB1BCE4B3C9B9A6A3A10D0A000080
:103C600070B50546002401214FF0C050FFF768FCF5
:103C70000120FFF73BFB0120FFF710FD04E0601C73
:103C8000C4B20A20FEF75CF96120FFF7E9FC08B92D
:103C9000FA2CF4DBFA2C01DB012070BDFDF710FEDD
:103CA0004FF44070FFF706FD0120FFF7FDFC00F028
:103CB00035F800F03DF800F031F8FFF70BFD4FF25A
:103CC0002340FFF757FF00F029F801214FF0C050C3
:103CD000FFF736FC0120FFF709FB2846FFF73CFF02
:103CE00000F01CF800F01AF8FFF7FEFC4AF2A551AC
:103CF0000420FDF7FBFD01210846FFF71BFE00F045
:103D00000DF801210220FFF715FE00F007F8FFF77C
:103D10008BFEFFF7F3FC0020BFE7000000BF034865
:103D2000008800F020000028F9D0704704280040E7
:103D3000074800884FF6F77108400549088000BF22
:103D40000348008800F008000028F9D07047000000
:103D50000428004000B587B001210820FFF700FCCF
:103D600001218803FFF7ECFB10208DF81B000320D6
:103D70008DF81A004FF48050ADF8180006A91E48BF
:103D8000FEF774FB04208DF81B000003ADF818004B
:103D900006A91948FEF76AFB18208DF81B004FF49E
:103DA0002040ADF8180006A91348FEF75FFB00207D
:103DB000ADF804004FF48270ADF806000020ADF8B5
:103DC00008000220ADF80A000120ADF80C00400206
:103DD000ADF80E000020ADF81000ADF8120007207D
:103DE000ADF8140001A9054800F016F801210348B8
:103DF00000F006F807B000BD000C0140003800409C
:103E000021B1028842F04002028004E002884FF6AD
:103E1000BF731A400280704710B50022028802F476
:103E200041520B884C8823438C882343CC882343FE
:103E30000C8923434C8923438C892343CC89234316
:103E40001A430280838B4FF2FF74234083830B8AD3
:103E5000038210BD7047000070B5224800684FF41F
:103E60007A72B0FBF2F1481EB0F1807F00D31BE004
:103E7000481E4FF0E022506150170F22002804DB4B
:103E800013071C0E184B1C5406E013071D0E174B8E
:103E900000F00F04241F1D5500BF00204FF0E0224A
:103EA00090610720106100BFFDF7F4FCFFF7A2F955
:103EB000FEF74AFDFFF74EFD03F006FE03F010FF8C
:103EC0000BA004F0D1FC00F011F912F081FE0DF00E
:103ED00033F910F08BFC06F0F1F9FEF7B9FB12F0A4
:103EE00005FF70BD0000002000E400E018ED00E0D8
:103EF000CFB5CDB3BFAACABCD4CBD0D00D0A000079
:103F000010B5044640F2B4410648FCF74EF920468D
:103F100004F042F800BF034890F8B2040128FAD137
:103F200010BD0000582E002010B500F001F810BDA3
:103F30000CB50020019000903348006840F48030B8
:103F40003149086000BF3048006800F4003000903C
:103F50000198401C0190009818B90198B0F5A06F25
:103F6000F1D12948006800F4003010B10120009020
:103F700001E0002000900098012843D12348006808
:103F800040F01000214908600846006820F0030056
:103F900008600846006840F0020008601A4840685F
:103FA000194948600846406848600846406840F43F
:103FB000806048600846406820F47C1048600846ED
:103FC000406840F4E81048600846006840F080709F
:103FD000086000BF0C48006800F000700028F9D0AD
:103FE0000948406820F003000749486008464068D7
:103FF00040F00200486000BF0348406800F00C0039
:104000000828F9D10CBD0000001002400020024039
:1040100010B50DF0E3F80DF081FA10F0EBFE10F0A2
:104020003BFF0DF0F5FA0DF0FDF905F099FF10BD1D
:1040300010B50DF03FFB0DF0FFFB10BD10B50DF0FE
:104040008BFD0DF017FE10BD10B5012011F052FCD4
:104050000A480068401C0949086009480068401C7B
:104060000749086007480068401C06490860064880
:104070000068401C0449086010BD000014000020C6
:10408000180000201C0000202000002010B513485C
:10409000006840F001001149086008464068104976
:1040A00008400E494860084600680E4908400B4920
:1040B00008600846006820F48020086008464068D0
:1040C00020F4FE0048604FF41F008860FFF72CFFCB
:1040D0004FF000600449086010BD0000001002406D
:1040E0000000FFF8FFFFF6FE08ED00E000B59FB00E
:1040F00000201E9001210802FFF712FA01214FF45F
:10410000B470FFF72DFA0120ADF8740010208DF87F
:10411000770003208DF876001DA9FE48FEF7A6F96A
:104120004CF23370ADF8740018208DF8770003203E
:104130008DF876001DA9F848FEF798F94FF68070C3
:10414000ADF8740018208DF8770003208DF8760004
:104150001DA9F248FEF78AF941F20100ADF874009A
:1041600018208DF8770003208DF876001DA9EC4803
:10417000FEF77CF901200790002008900F2009909D
:1041800000200A900B900C900D900090019003205D
:1041900002900020039004900590069006200E9057
:1041A00000200F9010901020119000201290149079
:1041B0001390159016904FF480501790002018908F
:1041C0004FF48040199000201A9007A81B90CDF85A
:1041D00070D00EA8FEF724F801210620FEF706F89D
:1041E0003220FDF7ADFE01210020FEF7F1FF322065
:1041F000FDF7A6FE0020FEF70FFDCA49888008469D
:104200008088FF280FDB084680884FF6FF718842C0
:1042100009D0C4488088B0F5134F04D0C1488088C5
:10422000B0F5144F7ED1D320FEF7BCFFFEF7EAFCB9
:10423000BC498880FEF7E6FCBA498880FEF7E2FCBC
:10424000B8498880084680884FF6FF7101EA00204F
:10425000B4498880FEF7D6FCB24989880843B14941
:1042600088800846808849F2413188425AD0AD485A
:10427000808849F286418842F8D0BF20FEF792FF3D
:10428000FEF7C0FCA7498880FEF7BCFCA5498880E2
:10429000FEF7B8FCA3498880FEF7B4FCA1498880EA
:1042A000084680884FF6FF7101EA00209D4988800A
:1042B000FEF7A8FC9B49898808439A4988800846EC
:1042C000808846F6040188427AD0D420FEF76AFF3F
:1042D000FEF798FC93498880FEF794FC914988800A
:1042E000FEF790FC8F498880084680884FF6FF7162
:1042F00001EA00208B498880FEF784FC894989887F
:104300000843884988800846808845F210318842F1
:1043100056D04FF45A40FEF745FFFEF773FC814933
:10432000888000E04CE04FF45B40FEF73BFFFEF777
:1043300069FC7C498880084680884FF6FF7101EA55
:104340000020784988804FF45C40FEF72BFFFEF791
:1043500059FC7449898808437249888008468088D6
:10436000B0F5004F02D145F2105088806D4880882A
:1043700045F21051884223D0A120FEF713FFFEF72B
:1043800041FC68498880FEF73DFC66498880084604
:1043900080884FF6FF7101EA002062498880FEF7AD
:1043A00031FC6049898808435E49888008468088D6
:1043B00045F26171884203D141F663105949888002
:1043C0005848808849F24131884211D05548808848
:1043D00045F2103188420BD05248808845F2105186
:1043E000884205D04F48808841F6631188421DD12C
:1043F0004D48006820F00F004FF02041C1F81C012B
:104400000846D0F81C0120F47060C1F81C01084671
:10441000D0F81C0140F00300C1F81C010846D0F898
:104420001C0140F40070C1F81C0128E03D48808860
:1044300046F60401884205D03A4880884CF205517E
:1044400088421CD13848006820F00F004FF020410E
:10445000C1F81C010846D0F81C0120F47060C1F8B6
:104460001C010846D0F81C0140F00A00C1F81C01EC
:104470000846D0F81C0140F44060C1F81C012948EE
:10448000808849F2413188427ED1CF20FEF78AFEF2
:104490000020FEF77BFEC120FEF778FE3020FEF7FD
:1044A00075FEED20FEF77EFE6420FEF76FFE032012
:1044B000FEF76CFE1220FEF769FE8120FEF766FE15
:1044C000E820FEF76FFE8520FEF760FE1020FEF765
:1044D0005DFE7A20FEF75AFECB20FEF763FE392000
:1044E000FEF754FE2C20FEF751FE0020FEF74EFE94
:1044F0003420FEF74BFE0220FEF748FEF720FEF7C1
:1045000051FE2020FEF742FEEA20FEF74BFE00207F
:104510000CE00000000C01400014014000180140B4
:10452000002001404A2E00201C0100A0FEF72EFEB4
:104530000020FEF72BFEC020FEF734FE1B20FEF706
:1045400025FEC120FEF72EFE0120FEF71FFEC5202E
:10455000FEF728FE3020FEF719FE3020FEF716FE8B
:10456000C720FEF71FFEB720FEF710FE3620FEF72D
:1045700019FE4820FEF70AFE3A20FEF713FE5520EA
:10458000FEF704FEB12000E0A5E0FEF70BFE0020E0
:10459000FEF7FCFD1A20FEF7F9FDB620FEF702FE3D
:1045A0000A20FEF7F3FDA220FEF7F0FDF220FEF751
:1045B000F9FD0020FEF7EAFD2620FEF7F3FD0120BD
:1045C000FEF7E4FDE020FEF7EDFD0F20FEF7DEFD37
:1045D0002A20FEF7DBFD2820FEF7D8FD0820FEF795
:1045E000D5FD0E20FEF7D2FD0820FEF7CFFD5420AA
:1045F000FEF7CCFDA920FEF7C9FD4320FEF7C6FD5E
:104600000A20FEF7C3FD0F20FEF7C0FD0020FEF7D5
:10461000BDFD0020FEF7BAFD0020FEF7B7FD00202B
:10462000FEF7B4FDE120FEF7BDFD0020FEF7AEFD74
:104630001520FEF7ABFD1720FEF7A8FD0720FEF7BB
:10464000A5FD1120FEF7A2FD0620FEF79FFD2B2001
:10465000FEF79CFD5620FEF799FD3C20FEF796FDE7
:104660000520FEF793FD1020FEF790FD0F20FEF7CA
:104670008DFD3F20FEF78AFD3F20FEF787FD0F20CE
:10468000FEF784FD2B20FEF78DFD0020FEF77EFD5A
:104690000020FEF77BFD0120FEF778FD3F20FEF7AE
:1046A00075FD2A20FEF77EFD0020FEF76FFD00203D
:1046B000FEF76CFD0020FEF769FDEF20FEF766FDBA
:1046C0001120FEF76FFD7820FDF73AFC2920FEF758
:1046D00069FD03F0E8B9FE48808849F286418842C6
:1046E0007ED1F220FEF75EFD1820FEF74FFDA320DD
:1046F000FEF74CFD1220FEF749FD0220FEF746FDB5
:10470000B220FEF743FD1220FEF740FDFF20FEF72A
:104710003DFD1020FEF73AFD0020FEF737FDF820A2
:10472000FEF740FD2120FEF731FD0420FEF72EFDAF
:10473000F920FEF737FD0020FEF728FD0820FEF7E0
:1047400025FD3620FEF72EFD0820FEF71FFD3A203E
:10475000FEF728FD0520FEF719FDB420FEF722FD27
:104760000120FEF713FDB620FEF71CFD0220FEF728
:104770000DFD2220FEF70AFDC120FEF713FD4120AA
:10478000FEF704FDC520FEF70DFD0020FEF7FEFC40
:104790000720FEF7FBFCE020FEF704FD0F20FEF7EC
:1047A000F5FC1F20FEF7F2FC1C20FEF7EFFC0C20AE
:1047B000FEF7ECFC0F20FEF7E9FC0820FEF7E6FC14
:1047C0004820FEF7E3FC9820FEF7E0FC3720FEF7D8
:1047D000DDFC0A20FEF7DAFC1320FEF7D7FC00E030
:1047E00045E00420FEF7D2FC1120FEF7CFFC0D209F
:1047F000FEF7CCFC0020FEF7C9FCE120FEF7D2FC5E
:104800000F20FEF7C3FC3220FEF7C0FC2E20FEF77F
:10481000BDFC0B20FEF7BAFC0D20FEF7B7FC05200F
:10482000FEF7B4FC4720FEF7B1FC7520FEF7AEFCA6
:104830003720FEF7ABFC0620FEF7A8FC1020FEF7A1
:10484000A5FC0320FEF7A2FC2420FEF79FFC2020FD
:10485000FEF79CFC0020FEF799FC1120FEF7A2FC5D
:104860007820FDF76DFB2920FEF79CFC31E7984886
:10487000808846F6040188427ED11120FEF792FC22
:104880001420FDF75DFBD020FEF78CFC0720FEF71F
:104890007DFC4220FEF77AFC1D20FEF777FCD1203C
:1048A000FEF780FC0020FEF771FC1A20FEF76EFC7C
:1048B0000920FEF76BFCD220FEF774FC0120FEF706
:1048C00065FC2220FEF762FCC020FEF76BFC102086
:1048D000FEF75CFC3B20FEF759FC0020FEF756FC7F
:1048E0000220FEF753FC1120FEF750FCC520FEF716
:1048F00059FC0320FEF74AFCC820FEF753FC0020B9
:10490000FEF744FC2520FEF741FC2120FEF73EFC8B
:104910000520FEF73BFC0020FEF738FC0A20FEF7DE
:1049200035FC6520FEF732FC2520FEF72FFC7720B2
:10493000FEF72CFC5020FEF729FC0F20FEF726FC8A
:104940000020FEF723FCF820FEF72CFC0120FEF7E8
:104950001DFCFE20FEF726FC0020FEF717FC0220BF
:10496000FEF714FC2020FEF71DFC3620FEF71AFC93
:104970000820FEF70BFC00E02AE03A20FEF712FCCC
:104980005520FEF703FC2B20FEF70CFC0020FEF761
:10499000FDFB0020FEF7FAFB0120FEF7F7FB3F20AE
:1049A000FEF7F4FB2A20FEF7FDFB0020FEF7EEFBEE
:1049B0000020FEF7EBFB0120FEF7E8FBDF20FEF70F
:1049C000E5FB7820FDF7BCFA2920FEF7EBFB80E63B
:1049D0003F48808845F21031884240F07C87ED20C6
:1049E000FEF7E0FB0120FEF7D1FBFE20FEF7CEFB39
:1049F000EE20FEF7D7FBDE20FEF7C8FB2120FEF7F6
:104A0000C5FBF120FEF7CEFB0120FEF7BFFBDF2048
:104A1000FEF7C8FB1020FEF7B9FBC420FEF7C2FB6F
:104A20008F20FEF7B3FBC620FEF7BCFB0020FEF78D
:104A3000ADFBE220FEF7AAFBE220FEF7A7FBE22097
:104A4000FEF7A4FBBF20FEF7ADFBAA20FEF79EFBFE
:104A5000B020FEF7A7FB0D20FEF798FB0020FEF725
:104A600095FB0D20FEF792FB0020FEF78FFB112037
:104A7000FEF78CFB0020FEF789FB1920FEF786FB72
:104A80000020FEF783FB2120FEF780FB0020FEF7CD
:104A90007DFB2D20FEF77AFB0020FEF777FB3D2003
:104AA000FEF774FB0020FEF771FB5D20FEF76EFB46
:104AB0000020FEF76BFB5D20FEF768FB0020FEF791
:104AC00065FBB120FEF76EFB8020FEF75FFB01E087
:104AD0004A2E00200020FEF759FB8B20FEF756FBE4
:104AE0000020FEF753FB9620FEF750FB0020FEF758
:104AF0004DFBB220FEF756FB0020FEF747FB0020DF
:104B0000FEF744FB0220FEF741FB0020FEF73EFBD0
:104B10000320FEF73BFB0020FEF738FBB320FEF737
:104B200041FB0020FEF732FB0020FEF72FFB0020A8
:104B3000FEF72CFB0020FEF729FB0020FEF726FBEA
:104B40000020FEF723FB0020FEF720FB0020FEF7ED
:104B50001DFB0020FEF71AFB0020FEF717FB0020CC
:104B6000FEF714FB0020FEF711FB0020FEF70EFB02
:104B70000020FEF70BFB0020FEF708FB0020FEF7ED
:104B800005FB0020FEF702FB0020FEF7FFFA0020E5
:104B9000FEF7FCFA0020FEF7F9FA0020FEF7F6FA1D
:104BA0000020FEF7F3FA0020FEF7F0FA0020FEF7EF
:104BB000EDFAB420FEF7F6FA8B20FEF7E7FA0020B4
:104BC000FEF7E4FA9620FEF7E1FA0020FEF7DEFA9F
:104BD000A120FEF7DBFA0020FEF7D8FAB520FEF799
:104BE000E1FA0220FEF7D2FA0020FEF7CFFA032006
:104BF000FEF7CCFA0020FEF7C9FA0420FEF7C6FA49
:104C00000020FEF7C3FAB620FEF7CCFA0020FEF72C
:104C1000BDFA0020FEF7BAFAB720FEF7C3FA00206B
:104C2000FEF7B4FA0020FEF7B1FA3F20FEF7AEFA25
:104C30000020FEF7ABFA5E20FEF7A8FA0020FEF790
:104C4000A5FA6420FEF7A2FA0020FEF79FFA8C2056
:104C5000FEF79CFA0020FEF799FAAC20FEF796FAD0
:104C60000020FEF793FADC20FEF790FA0020FEF712
:104C70008DFA7020FEF78AFA0020FEF787FA90205E
:104C8000FEF784FA0020FEF781FAEB20FEF77EFAA9
:104C90000020FEF77BFADC20FEF778FA0020FEF712
:104CA00075FAB820FEF77EFA0020FEF76FFA0020B2
:104CB000FEF76CFA0020FEF769FA0020FEF766FAAC
:104CC0000020FEF763FA0020FEF760FA0020FEF7EE
:104CD0005DFA0020FEF75AFABA20FEF763FA2420A4
:104CE000FEF754FA0020FEF751FA0020FEF74EFAC4
:104CF0000020FEF74BFAC120FEF754FA2020FEF701
:104D000045FA0020FEF742FA5420FEF73FFA002051
:104D1000FEF73CFAFF20FEF739FA0020FEF736FADC
:104D2000C220FEF73FFA0A20FEF730FA0020FEF715
:104D30002DFA0420FEF72AFA0020FEF727FAC320F6
:104D4000FEF730FA3C20FEF721FA0020FEF71EFAAB
:104D50003A20FEF71BFA0020FEF718FA3920FEF77A
:104D600015FA0020FEF712FA3720FEF70FFA00209E
:104D7000FEF70CFA3C20FEF709FA0020FEF706FACF
:104D80003620FEF703FA0020FEF700FA3220FEF785
:104D9000FDF90020FEF7FAF92F20FEF7F7F90020C1
:104DA000FEF7F4F92C20FEF7F1F90020FEF7EEF9FA
:104DB0002920FEF7EBF90020FEF7E8F92620FEF7A0
:104DC000E5F90020FEF7E2F92420FEF7DFF90020E4
:104DD000FEF7DCF92420FEF7D9F90020FEF7D6F91A
:104DE0002320FEF7D3F90020FEF7D0F93C20FEF790
:104DF000CDF90020FEF7CAF93620FEF7C7F90020EA
:104E0000FEF7C4F93220FEF7C1F90020FEF7BEF923
:104E10002F20FEF7BBF90020FEF7B8F92C20FEF793
:104E2000B5F90020FEF7B2F92920FEF7AFF900200E
:104E3000FEF7ACF92620FEF7A9F90020FEF7A6F947
:104E40002420FEF7A3F90020FEF7A0F92420FEF7A6
:104E50009DF90020FEF79AF92320FEF797F900202C
:104E6000FEF794F9C420FEF79DF96220FEF78EF953
:104E70000020FEF78BF90520FEF788F90020FEF7E9
:104E800085F98420FEF782F90020FEF77FF9F020F3
:104E9000FEF77CF90020FEF779F91820FEF776F985
:104EA0000020FEF773F9A420FEF770F90020FEF74A
:104EB0006DF91820FEF76AF90020FEF767F9502017
:104EC000FEF764F90020FEF761F90C20FEF75EF9A9
:104ED0000020FEF75BF91720FEF758F90020FEF7D7
:104EE00055F99520FEF752F90020FEF74FF9F3200F
:104EF000FEF74CF90020FEF749F9E620FEF746F9E7
:104F00000020FEF743F9C520FEF74CF93220FEF7EA
:104F10003DF90020FEF73AF94420FEF737F900206A
:104F2000FEF734F96520FEF731F90020FEF72EF97F
:104F30007620FEF72BF90020FEF728F98820FEF7EF
:104F400025F90020FEF722F9C620FEF72BF92020D4
:104F5000FEF71CF90020FEF719F91720FEF716F9E5
:104F60000020FEF713F90120FEF710F90020FEF7EC
:104F70000DF9C720FEF716F90020FEF707F900200B
:104F8000FEF704F90020FEF701F90020FEF7FEF815
:104F9000C820FEF707F90020FEF7F8F80020FEF71A
:104FA000F5F80020FEF7F2F80020FEF7EFF8C92030
:104FB000FEF7F8F80020FEF7E9F80020FEF7E6F823
:104FC0000020FEF7E3F80020FEF7E0F80020FEF7EF
:104FD000DDF80020FEF7DAF80020FEF7D7F8002011
:104FE000FEF7D4F80020FEF7D1F80020FEF7CEF847
:104FF0000020FEF7CBF80020FEF7C8F80020FEF7EF
:10500000C5F80020FEF7C2F80020FEF7BFF8002028
:10501000FEF7BCF8E020FEF7C5F81620FEF7B6F85C
:105020000020FEF7B3F81C20FEF7B0F80020FEF7D2
:10503000ADF82120FEF7AAF80020FEF7A7F83620E9
:10504000FEF7A4F80020FEF7A1F84620FEF79EF830
:105050000020FEF79BF85220FEF798F80020FEF79C
:1050600095F86420FEF792F80020FEF78FF87A207A
:10507000FEF78CF80020FEF789F88B20FEF786F803
:105080000020FEF783F89920FEF780F80020FEF755
:105090007DF8A820FEF77AF80020FEF777F8B9200F
:1050A000FEF774F80020FEF771F8C420FEF76EF8E2
:1050B0000020FEF76BF8CA20FEF768F80020FEF724
:1050C00065F8D220FEF762F80020FEF75FF8D920DD
:1050D000FEF75CF80020FEF759F8E020FEF756F8DE
:1050E0000020FEF753F8F320FEF750F80020FEF7FB
:1050F0004DF8E120FEF756F81620FEF747F800209D
:10510000FEF744F81C20FEF741F80020FEF73EF8B9
:105110002220FEF73BF80020FEF738F83620FEF795
:1051200035F80020FEF732F84520FEF72FF8002072
:10513000FEF72CF85220FEF729F80020FEF726F89B
:105140006420FEF723F80020FEF720F87A20FEF70F
:105150001DF80020FEF71AF88B20FEF717F8002044
:10516000FEF714F89920FEF711F80020FEF70EF86C
:10517000A820FEF70BF80020FEF708F8B920FEF78C
:1051800005F80020FEF702F8C420FDF7FFFF00201D
:10519000FDF7FCFFCA20FDF7F9FF0020FDF7F6FF41
:1051A000D220FDF7F3FF0020FDF7F0FFD820FDF738
:1051B000EDFF0020FDF7EAFFE020FDF7E7FF00200C
:1051C000FDF7E4FFF320FDF7E1FF0020FDF7DEFF30
:1051D000E220FDF7E7FF0520FDF7D8FF0020FDF7EF
:1051E000D5FF0B20FDF7D2FF0020FDF7CFFF1B20DE
:1051F000FDF7CCFF0020FDF7C9FF3420FDF7C6FF07
:105200000020FDF7C3FF4420FDF7C0FF0020FDF79D
:10521000BDFF4F20FDF7BAFF0020FDF7B7FF61206B
:10522000FDF7B4FF0020FDF7B1FF7920FDF7AEFFD9
:105230000020FDF7ABFF8820FDF7A8FF0020FDF759
:10524000A5FF9720FDF7A2FF0020FDF79FFFA620F6
:10525000FDF79CFF0020FDF799FFB720FDF796FFB3
:105260000020FDF793FFC220FDF790FF0020FDF71F
:105270008DFFC720FDF78AFF0020FDF787FFD120B3
:10528000FDF784FF0020FDF781FFD620FDF77EFFAC
:105290000020FDF77BFFDD20FDF778FF0020FDF704
:1052A00075FFF320FDF772FF0020FDF76FFFE3208D
:1052B000FDF778FF0520FDF769FF0020FDF766FF89
:1052C0000A20FDF763FF0020FDF760FF1C20FDF7BB
:1052D0005DFF0020FDF75AFF3320FDF757FF002048
:1052E000FDF754FF4420FDF751FF0020FDF74EFF6E
:1052F0005020FDF74BFF0020FDF748FF6220FDF72F
:1053000045FF0020FDF742FF7820FDF73FFF00201A
:10531000FDF73CFF8820FDF739FF0020FDF736FF41
:105320009720FDF733FF0020FDF730FFA620FDF7A3
:105330002DFF0020FDF72AFFB720FDF727FF0020F3
:10534000FDF724FFC220FDF721FF0020FDF71EFF1F
:10535000C720FDF71BFF0020FDF718FFD120FDF748
:1053600015FF0020FDF712FFD520FDF70FFF0020ED
:10537000FDF70CFFDD20FDF709FF0020FDF706FF1C
:10538000F320FDF703FF0020FDF700FFE420FDF709
:1053900009FF0120FDF7FAFE0020FDF7F7FE0120CE
:1053A000FDF7F4FE0020FDF7F1FE0220FDF7EEFE12
:1053B0000020FDF7EBFE2A20FDF7E8FE0020FDF7B8
:1053C000E5FE3C20FDF7E2FE0020FDF7DFFE4B206E
:1053D000FDF7DCFE0020FDF7D9FE5D20FDF7D6FECF
:1053E0000020FDF7D3FE7420FDF7D0FE0020FDF76E
:1053F000CDFE8420FDF7CAFE0020FDF7C7FE9320F6
:10540000FDF7C4FE0020FDF7C1FEA220FDF7BEFEA1
:105410000020FDF7BBFEB320FDF7B8FE0020FDF72E
:10542000B5FEBE20FDF7B2FE0020FDF7AFFEC420A2
:10543000FDF7ACFE0020FDF7A9FECD20FDF7A6FE8E
:105440000020FDF7A3FED320FDF7A0FE0020FDF70E
:105450009DFEDD20FDF79AFE0020FDF797FEF3206C
:10546000FDF794FE0020FDF791FEE520FDF79AFE82
:105470000020FDF78BFE0020FDF788FE0020FDF7E1
:1054800085FE0020FDF782FE0220FDF77FFE002052
:10549000FDF77CFE2920FDF779FE0020FDF776FE62
:1054A0003C20FDF773FE0020FDF770FE4B20FDF75A
:1054B0006DFE0020FDF76AFE5D20FDF767FE00200F
:1054C000FDF764FE7420FDF761FE0020FDF75EFE2F
:1054D0008420FDF75BFE0020FDF758FE9320FDF7CA
:1054E00055FE0020FDF752FEA220FDF74FFE0020E2
:1054F000FDF74CFEB320FDF749FE0020FDF746FE08
:10550000BE20FDF743FE0020FDF740FEC420FDF75E
:105510003DFE0020FDF73AFECD20FDF737FE0020CE
:10552000FDF734FED320FDF731FE0020FDF72EFEFF
:10553000DC20FDF72BFE0020FDF728FEF320FDF711
:1055400025FE0020FDF722FEE620FDF72BFE1120B0
:10555000FDF71CFE0020FDF719FE3420FDF716FEB6
:105560000020FDF713FE5620FDF710FE0020FDF78A
:105570000DFE7620FDF70AFE0020FDF707FE7720DE
:10558000FDF704FE0020FDF701FE6620FDF7FEFD9D
:105590000020FDF7FBFD8820FDF7F8FD0020FDF75A
:1055A000F5FD9920FDF7F2FD0020FDF7EFFDBB2092
:1055B000FDF7ECFD0020FDF7E9FD9920FDF7E6FD84
:1055C0000020FDF7E3FD6620FDF7E0FD0020FDF77C
:1055D000DDFD5520FDF7DAFD0020FDF7D7FD552054
:1055E000FDF7D4FD0020FDF7D1FD4520FDF7CEFDF0
:1055F0000020FDF7CBFD4320FDF7C8FD0020FDF79F
:10560000C5FD4420FDF7C2FD0020FDF7BFFDE720EA
:10561000FDF7C8FD3220FDF7B9FD0020FDF7B6FD0E
:105620005520FDF7B3FD0020FDF7B0FD7620FDF716
:10563000ADFD0020FDF7AAFD6620FDF7A7FD0020C7
:10564000FDF7A4FD6720FDF7A1FD0020FDF79EFDFD
:105650006720FDF79BFD0020FDF798FD8720FDF7F3
:1056600095FD0020FDF792FD9920FDF78FFD0020AC
:10567000FDF78CFDBB20FDF789FD0020FDF786FDC1
:105680009920FDF783FD0020FDF780FD7720FDF7D1
:105690007DFD0020FDF77AFD4420FDF777FD002019
:1056A000FDF774FD5620FDF771FD0020FDF76EFD3E
:1056B0002320FDF76BFD0020FDF768FD3320FDF78B
:1056C00065FD0020FDF762FD4520FDF75FFD002030
:1056D000FDF75CFDE820FDF765FD0020FDF756FDB8
:1056E0000020FDF753FD9920FDF750FD0020FDF748
:1056F0004DFD8720FDF74AFD0020FDF747FD88207E
:10570000FDF744FD0020FDF741FD7720FDF73EFD4C
:105710000020FDF73BFD6620FDF738FD0020FDF77A
:1057200035FD8820FDF732FD0020FDF72FFDAA2072
:10573000FDF72CFD0020FDF729FDBB20FDF726FD20
:105740000020FDF723FD9920FDF720FD0020FDF747
:105750001DFD6620FDF71AFD0020FDF717FD552001
:10576000FDF714FD0020FDF711FD5520FDF70EFD9E
:105770000020FDF70BFD4420FDF708FD0020FDF79C
:1057800005FD4420FDF702FD0020FDF7FFFC55203C
:10579000FDF7FCFC0020FDF7F9FCE920FDF702FD18
:1057A000AA20FDF7F3FC0020FDF7F0FC0020FDF738
:1057B000EDFC0020FDF7EAFC0020FDF7F3FCAA2039
:1057C000FDF7E4FCCF20FDF7EDFC0020FDF7DEFC4B
:1057D0000020FDF7DBFC0020FDF7D8FC0020FDF7E2
:1057E000D5FC0020FDF7D2FC0020FDF7CFFC002007
:1057F000FDF7CCFC0020FDF7C9FC0020FDF7C6FC3E
:105800000020FDF7C3FC0020FDF7C0FC0020FDF7E1
:10581000BDFC0020FDF7BAFC0020FDF7B7FC00201E
:10582000FDF7B4FC0020FDF7B1FC0020FDF7AEFC55
:10583000F020FDF7B7FC0020FDF7A8FC5020FDF795
:10584000A5FC0020FDF7A2FC0020FDF79FFC002036
:10585000FDF79CFCF320FDF7A5FC0020FDF796FC6E
:10586000F920FDF79FFC0620FDF790FC1020FDF7C6
:105870008DFC2920FDF78AFC0020FDF787FC3A20EB
:10588000FDF790FC5520FDF781FC1120FDF78AFC07
:105890006420FCF755FB2920FDF784FC3520FDF73B
:1058A00081FC0020FDF772FC5120FDF77BFCFF20FE
:1058B000FDF76CFC5320FDF775FC2C20FDF766FC12
:1058C0005520FDF76FFC8220FDF760FC2C20FDF7D2
:1058D00069FC02F0E8B8FE48808845F21051884221
:1058E0007ED155214FF47040FDF772FCAA214FF292
:1058F0000100FDF76DFC52214FF20200FDF768FC3C
:1059000008214FF20300FDF763FC01214FF2040070
:10591000FDF75EFC0D214FF43040FDF759FC0D21E1
:105920004BF20100FDF754FC0D214BF20200FDF794
:105930004FFC34214FF43640FDF74AFC34214BF242
:105940000160FDF745FC34214BF20260FDF740FC9D
:105950000D214FF43140FDF73BFC0D214BF20110BE
:10596000FDF736FC0D214BF20210FDF731FC34211E
:105970004FF43740FDF72CFC34214BF20170FDF75A
:1059800027FC34214BF20270FDF722FC00214FF47A
:105990003240FDF71DFC00214BF20120FDF718FC01
:1059A00000214BF20220FDF713FC24214FF4384074
:1059B000FDF70EFC24214BF60100FDF709FC242124
:1059C0004BF60200FDF704FC01214FF43F40FDF7C8
:1059D000FFFB0F214FF43340FDF7FAFB0F2100E0EE
:1059E000FEE34BF20130FDF7F3FB0F214BF20230E7
:1059F000FDF7EEFB34214FF43940FDF7E9FB34218C
:105A00004BF60110FDF7E4FB34214BF60210FDF7D5
:105A1000DFFB08214FF43540FDF7DAFB08214BF29C
:105A20000150FDF7D5FB08214BF20250FDF7D0FBEA
:105A300003214FF44240FDF7CBFB24214FF43A40C1
:105A4000FDF7C6FB24214BF60120FDF7C1FB242105
:105A50004BF60220FDF7BCFB00214FF43C40FDF764
:105A6000B7FB78214BF60140FDF7B2FB00214BF666
:105A70000240FDF7ADFB00214FF43D40FDF7A8FBD0
:105A800078214BF60150FDF7A3FB00214BF60250A5
:105A9000FDF79EFB00214FF43E40FDF799FB64218A
:105AA0004BF60160FDF794FB00214FF45140FDF7E8
:105AB0008FFB33214DF20110FDF78AFB00214DF2DF
:105AC0000210FDF785FB34214DF20310FDF780FB3A
:105AD00000214DF20410FDF77BFB3A214DF2051039
